:020000040800F2
:1000000000000A20AD9200086D2E00086F2E000837
:10001000712E0008732E0008752E0008FD9200084E
:10002000000000000000000000000000FD92000839
:10003000772E00080000000075030008E1020008A8
:10004000FD920008FD920008FD920008FD92000854
:10005000FD920008FD920008FD920008FD92000844
:10006000FD920008FD920008FD920008FD92000834
:10007000FD920008FD920008792E0008FD9200080C
:10008000FD920008FD9200087F2E0008FD920008F6
:10009000FD920008FD920008FD920008FD92000804
:1000A000FD920008FD920008FD920008FD920008F4
:1000B000FD920008FD920008FD920008FD920008E4
:1000C000FD920008FD920008FD920008FD920008D4
:1000D000FD920008FD920008FD920008FD920008C4
:1000E000FD920008FD920008FD920008FD920008B4
:1000F000FD920008FD920008FD920008FD920008A4
:10010000FD920008852E0008FD920008FD9200086F
:10011000FD920008FD920008FD920008FD92000883
:10012000FD920008FD920008FD920008FD92000873
:10013000FD920008FD920008FD920008FD92000863
:10014000FD920008FD920008FD920008FD92000853
:10015000FD920008FD920008FD920008FD92000843
:10016000FD920008FD920008FD920008FD92000833
:10017000FD920008FD920008FD920008FD92000823
:10018000FD920008FD920008FD920008FD92000813
:10019000FD920008FD920008FD920008FD92000803
:1001A000FD920008FD920008FD920008FD920008F3
:1001B000FD920008FD920008FD920008FD920008E3
:1001C000912E0008FD920008FD920008FD920008A3
:1001D000FD920008FD920008FD920008FD920008C3
:1001E000FD920008FD920008FD920008FD920008B3
:1001F000FD920008FD920008FD920008FD920008A3
:10020000FD920008FD920008FD920008FD92000892
:10021000FD920008FD920008FD920008FD92000882
:10022000FD920008FD920008FD920008FD92000872
:10023000FD920008FD920008FD920008FD92000862
:0C024000FD920008FD920008FD920008ED
:1002500010B5054C237833B9044B13B1044800E0C2
:1002600000BF0123237010BD200300200000000008
:10027000743C020808B5034B1BB10349034800E076
:1002800000BF08BD0000000024030020743C0208E9
:1002900072B64FF0E0201749C0F8081D16480168F3
:1002A00041F00101016015481249096801604FF0F1
:1002B000E020134941614FF0070101614FF0000157
:1002C000C0F8181D4FF07F41C0F81C1D0D49C0F843
:1002D000201D7047FFF7FEBF01B5BDE80140704724
:1002E00001B500F09FF8BDE801407047FFF7FEBF81
:1002F000FFF7FEBF00000008001000E0D82E00202D
:100300009F2526000000FF40026922F00702A2F1AB
:1003100044026FF0430313604FF000035360936097
:10032000D360136153619361D3611362536293622B
:10033000D362136353634FF0FF339363D1634FF082
:1003400080731364826070474FF00000314A106080
:10035000EFF3148020F0040080F3148862B64FF0AD
:1003600080504FF0E021C1F8040DBFF34F8FBFF371
:100370006F8FFEE72848294A4FF00003016891B1CA
:100380000360EFF3098C2CE9F00F1EF0100F01D180
:100390002CED108A224C4CF804EDC1F808C02568F9
:1003A0000DB18D61236072B61168D1B1016062B682
:1003B0004F681B4C8D6907F101074F602560D1F82C
:1003C0000CC08CF30B88D1F808C05CF804EB1EF06D
:1003D000100F01D1BCEC108ABCE8F00F8CF3098837
:1003E000704772B61168016049B90FB402F038FB6A
:1003F0000FBC0FB402F03EFB0FBC62B6F1E74FF04A
:1004000000674FF0E028C8F8047D62B6D0E700BF6F
:1004100070470000DC2E0020E02E0020E42E00209B
:10042000782F00202249086800F101000860214B64
:100430001A683AB1A2F101021A601AB91E4B4FF0C4
:10044000010018601D490868026822B11C4B4FF07A
:1004500001021A6008E000F104001A4B1A68904289
:1004600001D1194B18680860134B1A6812B9144966
:100470000868C8B101B51249086808B107F062FC04
:100480000D4B1A6872B107F0F1FE1048016849B9C6
:100490000F4801680F4A13680F484FF08052994285
:1004A00000D00260BDE80140BFF34F8F70470000ED
:1004B00050340020782F00204C340020F02E0020F3
:1004C000742F0020802F002038300020DC2E0020E8
:1004D000E02E0020E42E002004ED00E081F0004139
:1004E00002E000BF83F0004330B54FEA41044FEA19
:1004F000430594EA050F08BF90EA020F1FBF54EAB4
:10050000000C55EA020C7FEA645C7FEA655C00F04F
:10051000E2804FEA5454D4EB5555B8BF6D420CDD20
:100520002C4480EA020281EA030382EA000083EAA3
:10053000010180EA020281EA0303362D88BF30BD43
:1005400011F0004F4FEA01314FF4801C4CEA113199
:1005500002D0404261EB410113F0004F4FEA0333F8
:100560004CEA133302D0524263EB430394EA050F83
:1005700000F0A780A4F10104D5F1200E0DDB02FAF2
:100580000EFC22FA05F2801841F1000103FA0EF286
:10059000801843FA05F359410EE0A5F120050EF14C
:1005A000200E012A03FA0EFC28BF4CF0020C43FA7D
:1005B00005F3C01851EBE37101F0004507D54FF08A
:1005C000000EDCF1000C7EEB00006EEB0101B1F5DA
:1005D000801F1BD3B1F5001F0CD349085FEA300020
:1005E0004FEA3C0C04F101044FEA445212F5800F2B
:1005F00080F09A80BCF1004F08BF5FEA500C50F1C8
:10060000000041EB045141EA050130BD5FEA4C0CAA
:10061000404141EB010111F4801FA4F10104E9D133
:1006200091F0000F04BF01460020B1FA81F308BF2A
:100630002033A3F10B03B3F120020CDA0C3208DDF6
:1006400002F1140CC2F10C0201FA0CF021FA02F1D1
:100650000CE002F11402D8BFC2F1200C01FA02F141
:1006600020FA0CFCDCBF41EA0C019040E41AA2BF66
:1006700001EB0451294330BD6FEA04041F3C1CDA2E
:100680000C340EDC04F11404C4F1200220FA04F04E
:1006900001FA02F340EA030021FA04F345EA0301F8
:1006A00030BDC4F10C04C4F1200220FA02F001FABA
:1006B00004F340EA0300294630BD21FA04F029463C
:1006C00030BD94F0000F83F4801306BF81F48011D5
:1006D0000134013D4EE77FEA645C18BF7FEA655C48
:1006E00029D094EA050F08BF90EA020F05D054EA1A
:1006F000000C04BF1946104630BD91EA030F1EBF1F
:100700000021002030BD5FEA545C05D14000494122
:1007100028BF41F0004130BD14F580043CBF01F515
:10072000801130BD01F0004545F0FE4141F47001FB
:100730004FF0000030BD7FEA645C1ABF19461046D6
:100740007FEA655C1CBF0B46024650EA013406BFD7
:1007500052EA033591EA030F41F4002130BD00BF96
:1007600090F0000F04BF0021704730B54FF4806453
:1007700004F132044FF000054FF0000150E700BFD4
:1007800090F0000F04BF0021704730B54FF4806433
:1007900004F1320410F0004548BF40424FF0000120
:1007A0003EE700BF42004FEAE2014FEA31014FEA63
:1007B00002701FBF12F07F4393F07F4F81F06051B2
:1007C000704732F07F4208BF704793F07F4F04BFFD
:1007D00041F40021704730B54FF4607401F00045DA
:1007E00021F000411CE700BF50EA010208BF70473A
:1007F00030B54FF000050AE050EA010208BF70472B
:1008000030B511F0004502D5404261EB41014FF493
:10081000806404F132045FEA915C3FF4D8AE4FF09B
:1008200003025FEADC0C18BF03325FEADC0C18BF7E
:10083000033202EBDC02C2F1200300FA03FC20FACF
:1008400002F001FA03FE40EA0E0021FA02F114441C
:10085000BDE600BF70B54FF0FF0C4CF4E06C1CEA35
:1008600011541DBF1CEA135594EA0C0F95EA0C0FA6
:1008700000F0DEF82C4481EA030621EA4C5123EA19
:100880004C5350EA013518BF52EA033541F4801148
:1008900043F4801338D0A0FB02CE4FF00005E1FBFB
:1008A00002E506F00042E0FB03E54FF00006E1FB45
:1008B00003569CF0000F18BF4EF0010EA4F1FF0488
:1008C000B6F5007F64F5407404D25FEA4E0E6D41C8
:1008D00046EB060642EAC62141EA55514FEAC520D9
:1008E00040EA5E504FEACE2EB4F1FD0C88BFBCF555
:1008F000E06F1ED8BEF1004F08BF5FEA500E50F106
:10090000000041EB045170BD06F0004646EA0101CB
:1009100040EA020081EA0301B4EB5C04C2BFD4EBFD
:100920000C0541EA045170BD41F480114FF0000EF6
:10093000013C00F3AB8014F1360FDEBF002001F064
:10094000004170BDC4F10004203C35DA0C341BDCDE
:1009500004F11404C4F1200500FA05F320FA04F0B0
:1009600001FA05F240EA020001F0004221F00041E4
:1009700010EBD37021FA04F642EB06015EEA430E57
:1009800008BF20EAD37070BDC4F10C04C4F1200587
:1009900000FA04F320FA05F001FA04F240EA02003A
:1009A00001F0004110EBD37041F100015EEA430E0B
:1009B00008BF20EAD37070BDC4F1200500FA05F22B
:1009C0004EEA020E20FA04F301FA05F243EA0203AA
:1009D00021FA04F001F0004121FA04F220EA0200B9
:1009E00000EBD3705EEA430E08BF20EAD37070BDFF
:1009F00094F0000F0FD101F00046400041EB0101DF
:100A000011F4801F08BF013CF7D041EA060195F0C0
:100A1000000F18BF704703F00046520043EB03037A
:100A200013F4801F08BF013DF7D043EA0603704767
:100A300094EA0C0F0CEA135518BF95EA0C0F0CD072
:100A400050EA410618BF52EA4306D1D181EA0301B8
:100A500001F000414FF0000070BD50EA410606BFB2
:100A60001046194652EA430619D094EA0C0F02D1F7
:100A700050EA013613D195EA0C0F05D152EA03363C
:100A80001CBF104619460AD181EA030101F000415A
:100A900041F0FE4141F470014FF0000070BD41F0A3
:100AA000FE4141F4780170BD70B54FF0FF0C4CF47D
:100AB000E06C1CEA11541DBF1CEA135594EA0C0F9C
:100AC00095EA0C0F00F0A7F8A4EB050481EA030EE9
:100AD00052EA03354FEA013100F088804FEA0333D0
:100AE0004FF0805545EA131343EA12634FEA02229E
:100AF00045EA111545EA10654FEA00260EF000415F
:100B00009D4208BF964244F1FD0404F5407402D2B0
:100B10005B084FEA3202B61A65EB03055B084FEA41
:100B200032024FF480104FF4002CB6EB020E75EB3E
:100B3000030E22BFB61A754640EA0C005B084FEA66
:100B40003202B6EB020E75EB030E22BFB61A7546E3
:100B500040EA5C005B084FEA3202B6EB020E75EB2E
:100B6000030E22BFB61A754640EA9C005B084FEAA6
:100B70003202B6EB020E75EB030E22BFB61A7546B3
:100B800040EADC0055EA060E18D04FEA051545EAA2
:100B900016754FEA06164FEAC30343EA52734FEA4B
:100BA000C2025FEA1C1CC0D111F4801F0BD141EAC4
:100BB00000014FF000004FF0004CB6E711F4801F29
:100BC00004BF01430020B4F1FD0C88BFBCF5E06F09
:100BD0003FF6AFAEB5EB030C04BFB6EB020C5FEA19
:100BE000500C50F1000041EB045170BD0EF0004E6E
:100BF0004EEA113114EB5C04C2BFD4EB0C0541EAA0
:100C0000045170BD41F480114FF0000E013C90E69C
:100C100045EA060E8DE60CEA135594EA0C0F08BF60
:100C200095EA0C0F3FF43BAF94EA0C0F0AD150EA5F
:100C300001347FF434AF95EA0C0F7FF425AF1046F2
:100C400019462CE795EA0C0F06D152EA03353FF41A
:100C5000FDAE1046194622E750EA410618BF52EA97
:100C600043067FF4C5AE50EA41047FF40DAF52EA6B
:100C700043057FF4EBAE12E74FEA4102B2F1E043E5
:100C800024BFB3F5001CDCF1FE5C0DD901F0004C73
:100C90004FEAC0024CEA5070B2F1004F40EB8300C3
:100CA00008BF20F00100704711F0804F21D113F1EF
:100CB0003872BCBF01F00040704741F480114FEA28
:100CC0005252C2F11802C2F1200C10FA0CF320FAB1
:100CD00002F018BF40F001004FEAC1234FEAD323CE
:100CE00003FA0CFC40EA0C0023FA02F34FEA430338
:100CF000CCE77FEA625307D150EA01331EBF4FF0C1
:100D0000FE4040F44000704701F0004040F0FE40DB
:100D100040F40000704700BF7BB972B90029BEBF24
:100D200000204FF0004106E008BF00281CBF6FF014
:100D300000414FF0FF3000F0AFB9ADF1080C6DE9A4
:100D400004CE002909DB002B1ADB00F035F8DDF8B2
:100D500004E0DDE9022304B07047404261EB410149
:100D6000002B1BDB00F028F8DDF804E0DDE90223AE
:100D700004B0404261EB4101524263EB43037047D0
:100D8000524263EB430300F017F8DDF804E0DDE9BD
:100D9000022304B0404261EB41017047524263EBD1
:100DA000430300F009F8DDF804E0DDE9022304B0B4
:100DB000524263EB430370472DE9F0478C46089D90
:100DC00004468A46002B4AD18A42174662D9B2FAB3
:100DD00082F64EB1C6F1200E01FA06F3B740B440D8
:100DE00020FA0EFE4EEA030A4FEA1748230C1FFAB8
:100DF00087F9BAFBF8FE08FB1EAA0EFB09F243EACC
:100E00000A439A420BD9FB180EF1FF312CBF012087
:100E100000209A4202D9002800F02A818E469A1AB0
:100E2000A3B2B2FBF8F008FB102200FB09F943EA79
:100E30000244A14507D93C1900F1FF3302D2A14574
:100E400000F210811846A4EB090440EA0E4000218C
:100E50001DB1F4400023C5E90043BDE8F0878B4293
:100E600008D9002D00F0F2800021C5E9000C0846E9
:100E7000BDE8F087B3FA83F100294ED16345C0F095
:100E8000E880824240F2E5800846002DE5D0C5E9C1
:100E9000004AE2E702B9FFDEB2FA82F6002E40F025
:100EA00099808B1A4FEA124E1FFA82F801214FEAFD
:100EB000144CB3FBFEF20EFB123008FB02F94CEAB5
:100EC000004CE14508D917EB0C0C02F1FF3302D2BC
:100ED000E14500F2CA801A46ACEB090CA3B2BCFB98
:100EE000FEF00EFB10CC08FB00F843EA0C44A045D2
:100EF0000ED93C1900F1FF332CBF4FF0010C4FF01D
:100F0000000CA04503D9BCF1000F00F0A8801846E2
:100F1000A4EB080440EA02409AE7C1F120048B40A8
:100F200002FA01FE0CFA01F6E24020FA04F72CFA6C
:100F300004FC00FA01F813433E431F0C320C1FFA65
:100F400083F9BCFBF7F007FB10CC00FB09FA42EA7F
:100F50000C4CE24508D913EB0C0C00F1FF3202D225
:100F6000E24500F289801046ACEB0A0CB6B2BCFB3D
:100F7000F7FA07FB1ACC0AFB09F946EA0C4291453D
:100F800006D99A180AF1FF3601D291457AD8B246AD
:100F90004AEA0040A2EB0902A0FB0E67BA42B4463F
:100FA000B94602D307D1B04505D2B6EB0E0C67EBBC
:100FB000030301389946002D6BD0B8EB0C0362EBAC
:100FC000090202FA04F4CB40CA4000211C43C5E9DF
:100FD000004242E7B740C6F1200201FA06F3B440EE
:100FE00021FA02FC4FEA174E20FA02F21FFA87F8A4
:100FF000BCFBFEF11A430EFB11CC01FB08F0130CF5
:1010000043EA0C4C604507D917EB0C0C01F1FF3398
:1010100001D2604533D81946ACEB000C92B2BCFB50
:10102000FEF00EFB10CC00FB08F342EA0C4C6345CB
:1010300007D917EB0C0C00F1FF3201D2634525D81C
:101040001046ACEB030340EA014130E7294628464D
:1010500003E7841A6CEB030301209A4615E7023874
:101060003C4455E702383C44EDE6023ABC4433E7E1
:10107000AEF1020E3B44D2E602389C4474E70239DA
:10108000BC44C9E7AAF1020A1A4481E70238BC4409
:10109000D7E72946E1E600BF704700BF7047043834
:1010A0007047704710B50446102120F045FD2046DA
:1010B00010BDA0F10400F5E7002210B58260044ADB
:1010C000C16002F1080420320460426010BD00BF1C
:1010D000043D0208704770477047000010B5044691
:1010E000024B036000F092F8204610BD343D020828
:1010F00010B50446FFF7F2FF20464FF4C07120F010
:101100001BFD204610BD000010B5044600F024F978
:10111000014B2046236010BD343D020800F077B833
:101120000022026070477047704700F598730868A6
:10113000496803C37047704700F060BA10B50446B1
:101140004FF4AE7120F0F8FC204610BD10B50446F7
:10115000D0F85801FFF7E7FF2046BDE810400EF039
:1011600001B910B50446D0F8400158B10368DB68F6
:10117000984738B1D4F8400103689B68984700232A
:10118000C4F8403110BD000010B5044600F0FAF973
:10119000014B2046236010BD683D020890F82520D1
:1011A00012B103685B69184770470020704781805F
:1011B0007047C18070470181704741817047704717
:1011C0007047704770477047C38810B4D21A83883D
:1011D00012B2C91A036809B25B6D5DF8044B184777
:1011E0004FF6FF7383814FF0FF3303621368C361CF
:1011F0001060704790F825201AB190F8242002B1B1
:101200001860704770477047704770477047704765
:1012100010B50446082120F08FFC204610BD10B503
:1012200004464FF4C07120F087FC204610BD00003A
:1012300010B5D0F8783104460133642BC0F878310A
:1012400007D10D4B6C30C3620FF0BCF90023C4F81A
:101250007831D4F87C310133C82BC4F87C3109D102
:10126000064B04F16C00C4F898300FF0ABF9002382
:10127000C4F87C3110BD00BF8EFA75FFFA9339FFB8
:1012800070B50446154603681B6B984723682946CA
:101290002046BDE870405B6B184770B504461E469B
:1012A000BDF91050FFF7ECFF2368314620469A6BDA
:1012B0009047236829462046BDE87040DB6B1847FD
:1012C000012180F825100B4900220160FF21828056
:1012D000C280028142818281C28102824282C0E94F
:1012E0000522C2610284428480F8242080F82610FE
:1012F0008262704794500208012180F82510144939
:1013000000220160134910B581624FF47F044FF64B
:10131000FF718280C280028142818281C281028209
:101320004282C0E90522C2610284428480F82420FE
:1013300081850263446380F8382080F839208287F1
:10134000C287A0F84010A0F84210426410BD00BF50
:1013500004500208BC3D02082DE9F04F0446002568
:10136000A2464FF0F00B8BB00FF090FF584BE563A7
:101370004AF8403B5046FFF7A3FF04F16C031846C0
:101380000393FFF79DFF534B04F1A00904F1E80814
:10139000E366C4F89850A4F89C504846FFF7ACFFA9
:1013A00004F598774046FFF7A7FF3846FFF7A4FFFC
:1013B0002A46CDF800B05B4629465046C4F878511D
:1013C000C4F87C51FFF769FF4FF07F43261DA366E9
:1013D0005146304607F0CCFF2A46CDF800B05B46B8
:1013E00029460398FFF759FF4FF07F43DFF8ECA041
:1013F0000399C4E9253A05233046A4F89C3007F048
:10140000B7FF0DF1100B4F2248462E21FFF738FF92
:1014100049465846C4F8D0A0A4F8D4500AF0FCFFBE
:101420009BE8070004F1DC0383E8070002222A4B53
:1014300008A9484608930393ADF824200BF094FACA
:101440004946304607F094FF932240466121FFF75A
:1014500017FF41465846C4F818A1A4F81C510AF0D9
:10146000DBFF9BE8070004F5927C8CE80700012273
:10147000039B08A940460893ADF824200BF074FAAA
:101480004146304607F074FFC02238465521FFF729
:10149000F7FE39465846C4F860A1A4F864510AF032
:1014A000BBFF9BE8070004F5B67C039B8CE80700B4
:1014B00008A938460893ADF824500BF055FA304689
:1014C000394607F055FF20460BB0BDE8F08F00BF4E
:1014D000CC3D0208FC500208BC3D0208FA9339FFDB
:1014E000704770477047416070477047012303722F
:1014F000704770477047034610B4C4684168621073
:10150000E40701EB02009B6848BF8A585DF8044B72
:1015100048BFD358184743682BB183682BB9C068BC
:1015200000F001007047184670470120704710B561
:1015300004460C2120F000FB204610BD10B50446E7
:101540004FF4AE7120F0F8FA204610BD10B50446F5
:10155000102120F0F1FA204610BD10B50DF080FEEC
:10156000BDE810400368DB6B18470000044B1B68A4
:1015700093F858200AB1D86C00B99868704700BF3A
:10158000F41F0020F8B50446174600250E460DF05E
:1015900029FF164BC4F83C511C60154BC4F8405150
:1015A0002360144BC4F84851C4F84431124BC4F8BA
:1015B0004C511868C4F85051C4F85471C4F85861BB
:1015C000036829469B689847284600F0B5FAFFF75C
:1015D000CDFF18F0AAF8FFF7C9FF18F01DF9FFF7C3
:1015E000C5FF18F025F92046F8BD00BF48200020AF
:1015F000183E0208003E0208F41F0020064BC0F807
:101600004801C0F84C310023C0F8503100F5A273F6
:10161000C0F84031704700BF5D1700082DE9F04762
:10162000074690689946036888461B6A1546DDF8A8
:1016300020A09847B0F5C07F05D2A321414B424A74
:10164000424821F001FB686803681B6A98470F282D
:1016500003D83F4B3C4AA421F2E7E86803681B6AC1
:1016600098470B2803D83B4B374AA521E8E70DF0F4
:10167000F7FD04300DF019FED9F8000010B1036831
:10168000DB689847D9F8000010B103681B689847D9
:10169000386810B103685B699847D8F8000010B14A
:1016A00003685B689847386810B103681B689847FF
:1016B000D8F8000010B103689B689847E8680021DB
:1016C00003685B6A9847044620B1002343600372B5
:1016D000214B0360A868002103685B6A98470646AF
:1016E00008B1FFF711FD6868002103685B6A98473D
:1016F000054610B13146FFF7DFFCC9F80040C8F8D5
:1017000000503E60E5B12B1DCAF80030C5F808A0B6
:101710003368F5633046DB6898472B6828461B68BA
:101720009847214630460FF05DFF236820461B692D
:101730009847236820465B6998472846BDE8F087AC
:101740002B46E1E7883E02089D400208163F02084A
:10175000573F0208FA3F02086C3E020807B5D0F86E
:10176000583100F59E710093D0F85421034B044882
:10177000FFF754FF03B05DF804FB00BF3C200020DE
:101780003820002013B5002249B102AB019203F8C2
:10179000052D0268946801AAA04702B010BD084652
:1017A000FBE7C0897047008A7047C088704780880F
:1017B0007047807A00F07F007047807AC0097047D8
:1017C0000020704700207047406A7047806A704769
:1017D000704710B58A880B884C88C169D20A51F8C5
:1017E000220043EA0443184410BD10B5C2B1137B74
:1017F000B3B1547BD27A240204F4E0641443026A45
:1018000098B202EB840213888B4202D192F9020053
:1018100010BD05D8013880B204320028F3D1F7E7B3
:101820000020F5E710B504462C2120F085F920466C
:1018300010BD000030B504468BB0BDF8605008956F
:10184000BDF85C5007959DF8505006959DF84C509A
:1018500005959DF8485004959DF8445003959DF8D2
:10186000405002959DF83C500195BDF838500095C8
:101870000FF012FB2046064B2360159BE361169B7D
:101880002362199B63621A9BA3620BB030BD00BF39
:10189000AC4102087047000030B5134D8FB02B6883
:1018A00013F001031CD13F220992104A012408922F
:1018B0000F4ACDE90B33079204220A93CDE9023295
:1018C000CDE9053401930A23049400930D220C23DF
:1018D00008490948FFF7AEFF08482C6021F0D2F90B
:1018E00005480FB030BD00BF3C030020646702080C
:1018F00060670208B46402084003002095180008DD
:1019000010B5002404600C6014601C6010BD7047AA
:1019100030B5134C8FB0236813F001031CD13F2264
:101920000992104ACDE90B3308920F4A0A93CDE988
:101930000632059304220125CDE901332823CDE9A0
:10194000032500930722292308490948FFF772FF5E
:101950000848256021F096F905480FB030BD00BF5A
:101960006C030020386702086C6702088C66020866
:10197000700300200F1900087047000030B5124DA9
:101980008FB02B6813F001031BD13F2209920F4A3D
:10199000012408920E4ACDE90B33079204220A93E0
:1019A000CDE90232CDE90534019314230494009368
:1019B000052208490848FFF73DFF08482C6021F040
:1019C00061F905480FB030BD9C030020686702082C
:1019D00070670208F0660208A00300207919000869
:1019E000704710B50446042120F0A6F8204610BD2B
:1019F000012908B508D003D3022909D0002002E04C
:101A000000F012F8006808BD00F00EF84068FAE730
:101A100000F00AF88068F6E70048704720420208A4
:101A2000012070470320704700487047CC03002016
:101A300010B5FFF7A3FF044C2060FFF769FF60605B
:101A4000FFF72AFFA06010BDCC03002000207047E4
:101A5000002070470EB403B503AB53F8042B0021EC
:101A600001930EF085FC02B05DF804EB03B0704703
:101A70000CB407B504AB53F8042B01930EF078FCBB
:101A800003B05DF804EB02B07047000010B5436C82
:101A9000044673B3038F2BB9C521184B184A194854
:101AA00021F0D2F8C38E00EB43035B8C0BB310F034
:101AB000F2FA238F012B03D8134B144ACB21EEE704
:101AC000E28E40F63F10531C9BB21946092B88BF8B
:101AD000A3F10A0104EB4101498C814209D10A2B8F
:101AE00028BF002304EB4202508C04EB43035884CC
:101AF00051842046BDE8104010F0D0B934420208AD
:101B0000614302083D420208814202088F420208F6
:101B100010F08BB910B586B002AC84E806001A4606
:101B20000AAB05930193099B21460093089B0CF097
:101B300035FF06B010BD000038B5D8B9114B1248BA
:101B40001B681249BBB11A689C681A4402605A6843
:101B50001C441A440A606CB100220D4B1A80FFF736
:101B600063FF0546FFF75EFF0A4B1C600A4B1D60D2
:101B70000A4B188038BD0A4B03600A4B0B600A4BB6
:101B80001C68E8E7D8030020DC030020E003002005
:101B9000E40300204C20002054200020502000208E
:101BA0008C6702087467020888670208044B1B6888
:101BB00053F82100034B1B6803EB4000704700BF44
:101BC000E0030020DC030020012380F8781080F877
:101BD0007930704770470020704700004164003141
:101BE00018BF0121014B1970704700BFF31F00207F
:101BF000704700207047836B0BB108461847704749
:101C00004FF6FF707047406803689B69184770473C
:101C100070477047704700207047B1F904308380E7
:101C200001207047704780F82610704790F8260012
:101C30007047002210B5B1F90840B1F90A100280CE
:101C400042808480C18010BD002202804280828058
:101C5000C2807047017770470162704780F8241096
:101C6000704780F825107047012070479830704702
:101C70008C307047843070477047704770477047AA
:101C8000704710B504462C211FF056FF204610BDAA
:101C900010B50446BC211FF04FFF204610BD0000C8
:101CA00010B531B90A4B0B4A40F2FF210A4820F027
:101CB000CBFFC0E90F12003218BF012207490A709A
:101CC00002681946BDE81040D2F89020104700BFC6
:101CD0000D4602080047020845460208F21F002090
:101CE00008B5094B1B888B4203D8084B1B889342CD
:101CF00005D9074B074AA321074820F0A5FF074B4A
:101D00001980074B1A8008BDE81F0020EA1F002039
:101D1000AA450208BD46020845460208EE1F0020FB
:101D2000F01F002070B5044607F009FE23689D6E81
:101D30000DF096FA01462046A8472368054AD3F8D5
:101D40008C502046AC46BDE870400023A2F5E1313E
:101D5000604700BF580E022007F0D8BD07F0E2BD73
:101D600007F09EBD07F01FBF10B5044608F076FBD4
:101D700023682046BDE81040D3F8BC30184790F8DF
:101D80007A301BB1406803681B68184718467047D3
:101D900010B590F8784090F834100C4B8C421A78BB
:101DA00009D03AB90A490B4A0888148810800122E0
:101DB0000C801A7010BD002AFCD0064A0449148811
:101DC00008880C8010800022F3E700BFEC1F002081
:101DD000EA1F0020E81F0020704770472DE9F041FE
:101DE000FF2B00EB4101BDF8184005D120F8024B54
:101DF0008142FBD8BDE8F081174D04F4FC6704EA8A
:101E0000050C04F01F0403FB0CFC5F435C43DB4345
:101E1000FF26DBB2B0F800E00EEA05020EF4FC6823
:101E200003FB02C203FB08780EF01F0E03FB0E4EED
:101E300092FBF6F298FBF6F89EFBF6FE2A4008F4B9
:101E4000FC6842EA08020EF01F0E42EA0E0220F879
:101E5000022B8142DED8CDE700F8FFFFFF2B2DE9F2
:101E6000F04300EB420E32D0DF434FF0FF0C1C4A30
:101E7000FFB2068831F8025B06EA020807FB08F8A1
:101E800005EA020403FB048494FBFCF406F4FC69F9
:101E900007FB09F906F01F067E4304EA020805F471
:101EA000FC6403FB049405F01F0503FB056594FB2C
:101EB000FCF495FBFCF504F4FC6448EA040405F02A
:101EC0001F052C4320F8024B8645D2D805E031F897
:101ED000023B20F8023B8645F9D8BDE8F08300BFFD
:101EE00000F8FFFF4FF0FF0C2DE9F04FDFF8B0E0F6
:101EF00000EB4202043951F8046F340E5C43651C58
:101F000005EB24252D12FF2D0ED174090EEA16279C
:101F100004F4FC642743C6F3C4063E430680023043
:101F20008242E8D8BDE8F08FECB2002DF7D0E44350
:101F3000B0F80080E4B24FEA282B0BF0F80B4BEA24
:101F40005B1B1BFB04FBC6F3074705FB07B797FBAF
:101F5000FCF74FEAE80A0AF0FC0A4AEA9A1A1AFB66
:101F600004FA0EEA0729C6F30727F6B26E434FEAD2
:101F7000C8085FFA88F805FB07A748EA581808FB65
:101F8000046497FBFCF794FBFCF4FF0007F4FC6788
:101F900049EA0707C4F3C4043C430480BFE700BF19
:101FA00000F8FFFF002370B58380114B114D0360D3
:101FB0002A68064692F8581009B1D06C00B99068AA
:101FC0000368DB6A9847B0FA80F42B686409D86C20
:101FD00028B10368DB6A9847002808BF01242CB9A0
:101FE000054B064A2C21064820F02EFE304670BDD7
:101FF00014440208F41F0020F0440208844602083A
:102000004E45020870B5234E356815F001053FD1E5
:10201000214C224B04F13400C4E90035C4E90255D7
:102020002561E58425856585A5850EF064FE04F1AE
:1020300058000AF099F82046194BA365194B40F84F
:10204000843BFFF7AFFF184B1848C4F884302433A3
:10205000C4F88C304FF4C803C4E928350023C4F811
:10206000AC30C4F8B030C4F8B430C4F8B830104B59
:10207000C4F89050C4F898300123A4F89C5084F818
:10208000A85084F8A95084F8AA50336020F0FAFDD3
:10209000014870BDE8030020EC030020404F020817
:1020A00034440208AC440208F44E0208791C0008CB
:1020B000D44E0208024B1880BFF34F8F704700BF09
:1020C000020000604FF0C0431880BFF34F8F70478D
:1020D0007047002070477047704700207047704776
:1020E00008B5034A034B2221034820F0ADFD00BF91
:1020F000E84702084E4702087147020808B5034A3C
:10210000034B2721034820F09FFD00BF264802080B
:102110004E4702087147020810B5044644211FF0DB
:102120000BFD204610BD000038B5044600252146B1
:10213000064B0C30606025726572012241F8203B2D
:1021400008F0FAFAE562204638BD00BFA047020851
:102150001FB534231A4A00931A4964231A4806F01B
:10216000B7FC034628B13921184B194A194820F009
:102170006BFD042203A9144806F0F8F818B1164BB9
:10218000134A4021F2E7042338221449CDE90032F2
:102190001348039B012206F05BFA18B1114B0C4A5D
:1021A0004721E3E71C2301220F49104806F08CF871
:1021B00018B10F4B064A4D21D8E705B05DF804FB76
:1021C000C40400206448020828050020784802085A
:1021D0002C4A0208A7480208D04802080E49020803
:1021E0005C050020224902084F490208A80400208B
:1021F0006549020808B54FF0FF31054805F098FC25
:1022000028B1044B044A5821044820F01DFD08BDA4
:10221000A8040020004A0208F94A0208A748020858
:1022200008B50648836843B906F006FA28B1044B9E
:10223000044A6521044820F007FD08BDA8040020D9
:10224000D4490208BC4A0208A748020800210148F4
:1022500005F06EBCA804002038B5EFF3108572B607
:102260000C4C0D48226801322260826842B906F0A7
:10227000E3F928B1094B0A4A8B210A4820F0E4FC13
:102280002368013B236085F31088BDE8384006F0E1
:1022900049BA00BFDC2E0020A8040020D44902085F
:1022A000364B0208A748020808B5074802694AB930
:1022B000064905F053FE28B1054B064AA7210648FA
:1022C00020F0C2FC08BD00BF5C0500200400002017
:1022D000944902085B4A0208A748020808B5002290
:1022E0000A490B4805F006FD38B10A2805D0094B0C
:1022F000094ACA21094820F0A7FC4FF0FF320349E0
:10230000034805F0F7FC0028F1D108BD04000020C7
:102310005C050020B34902088B4A0208A74802085E
:10232000012070470C2070470C2303FB010008308C
:1023300070470C2303FB01000830704701207047F1
:102340004FF4C07070474FF4C07303FB01000830B6
:1023500070474FF4C07303FB010008307047012041
:1023600070471020704700EB01100830704700EBF9
:102370000110083070470846FFF740B910B5044611
:10238000024B036006F0DEFF204610BDEC4B020856
:1023900010B50446FFF7F2FF204614211FF0CCFBD6
:1023A000204610BD10B50446024B036006F0CAFF7C
:1023B000204610BDB84B020810B50446FFF7F2FFE7
:1023C00020464FF4C4711FF0B7FB204610BD00003B
:1023D00010B50446024B036006F0B4FF204610BD62
:1023E000844B020810B50446FFF7F2FF204618217F
:1023F0001FF0A2FB204610BD10B50446074B03603A
:1024000000F5DA70FFF7BAFF04F12C00FFF7CAFFFE
:1024100004F11400FFF7DCFF204610BD204C020839
:1024200008B50248FFF7E8FF08BD00BF9805002087
:1024300010B50446FFF7E0FF20464FF44A711FF045
:102440007BFB204610BD00002DE9F341FFF7E4FAC5
:1024500000240546FFF7E4FA2346014622462846B3
:10246000009410F0EDF8234B234A20461A60FFF742
:1024700063FB224B224A234E9A60234810F048F80F
:102480003368DB0730D4214C214B04F5E67504F1A9
:10249000140004F12C0804F5DA776060C4F80880B1
:1024A000E7602561236006F04FFF1A4B40466361E9
:1024B00006F04AFF184B3846E36206F045FF174B1B
:1024C00004F5E470C4F8B431FEF72AFE224604F5A0
:1024D000E4712846FEF758FE2846FFF78FF80123DF
:1024E0000F48336020F0CEFB0E4802B0BDE8F0414B
:1024F00000F090BA58200020B4090020B80900204C
:10250000C008002094050020080000209805002045
:10251000204C0208844B0208B84B0208EC4B02081E
:10252000212400082409002070470000014807F01A
:102530001ABA00BF2409002070B5374E374B384C0B
:10254000384D30462360FFF7EFFD284615F062FA5C
:1025500035480EF0EDF800220121344B3448C3E930
:102560000422C3E90622C3E908221A8583F82A2037
:10257000DA621A86C3E90E22C3E9102283F84820E2
:1025800083F8491083F84A2083F84B20C3E91322CB
:102590005A6583F85820C3E917225A66986683F86B
:1025A0006C2083F86D2083F86E20C3E90165DC6040
:1025B00083F86F2083F87A1083F87B10042183F866
:1025C0007D103C21A3F87E101421A3F88010A3F8FD
:1025D0008210184918480B60F02101801748C3F891
:1025E00088200180164883F87020018015485A67BA
:1025F0000180154983F878200A7083F8792083F8E0
:102600007C2083F834201149C3F88C20104A1960CB
:10261000C3F8842070BD00BFE00800203C4D0208D4
:10262000DC080020B8090020C00800202409002090
:1026300001000001F41F0020E81F0020EE1F002011
:10264000EA1F0020F01F0020EC1F0020504C020861
:10265000544D0208704770470023037100F0BEBA62
:1026600070B504460E4601F009F90B4D2B68C01AEF
:10267000B0F5487F04D901F001F9002328602371E7
:1026800000F0AEFAC0B2307028B12379834216BF91
:1026900020710020012070BD440A002010B50446BE
:1026A00008211FF049FA204610BD0000014B1868B0
:1026B000704700BF480A0020034B834202BF01223B
:1026C000024B1A70704700BFF02B00200C00002056
:1026D00072B6FEE770470000014B1960FFF7CEBAF3
:1026E000480A0020FFF73CBBFFF73CBBFFF7C5BA29
:1026F00010B504460E2004F01FFC2046BDE8104033
:10270000FFF7BBBA10B504460E2004F023FC2046A8
:10271000BDE81040FFF7B1BAFFF7AFBA0022024B95
:102720001A70FFF719BB00BF4C0A002010B5044611
:10273000FFF714FB94F84B3013B10122014B1A70D0
:1027400010BD00BF4C0A002007F0A4B810B5044625
:1027500090211FF0F1F9204610BD2DE9F04105460A
:1027600090460C461E462A20EFB2FFF7ABFCC5F39D
:102770000F20FFF79FFC08F1FF383846FFF79AFC5F
:1027800008EB0500C0F30F20FFF794FC07EB0800EF
:10279000C0B2FFF78FFC2B20FFF794FCE5B2C4F327
:1027A0000F20FFF787FC013E2846FFF783FC301916
:1027B000C0F30F20FFF77EFCA819C0B2BDE8F041BE
:1027C000FFF778BC70B5464D464C2B689CB093F82B
:1027D0006A20013283F86A20002283F87C20FFF708
:1027E00063FD237893B9404803F0F2F808B100F094
:1027F000EBFD3D4802F0ECFF08B100F0E5FD3B4A7F
:102800000021394804F013FB01232370384B1B7857
:10281000002B63D0286807F021FEF02300211A4620
:102820000846FFF79AFF2C20FFF74CFC00232E4AA6
:102830002370126D140651D52E4A222011684FF4D0
:102840000072CDE90102CDE9033208224FF4803055
:10285000CDE905230122CDE907204FF040404FF696
:10286000FE740C93CDE91423CDE91633189312931B
:10287000CDE90F33204B0D902048CDE90A22199164
:10288000CDE91A3403F0D6FA40BB1D4901A803F084
:1028900087F918BB1A49194803F03CFAF0B9034606
:1028A000184D164E199A2244199243B113490E48F5
:1028B00003F004FB90B90C4803F00EF90EE04CF263
:1028C0000223294601A81B9303F06AF930B929466F
:1028D000304603F05FFA01230028E3D01CB070BD3E
:1028E000F41F00200C000020F02B0020B926000867
:1028F0004C0A0020480A002002000060980A0020CC
:10290000500A0020740A0020082808B506D10020CB
:1029100000F0C4F8BDE80840FFF754BF08BD8028A8
:1029200001D100F023B9082802D1002000F0D0B86E
:1029300070470000F0B500228FB04FF400513248CC
:1029400004F062FD012000F09FFF01224FF40051CE
:102950002D4804F059FD782000F096FF3A20FFF74B
:10296000B1FB0520FFF7A6FB2120FFF7ABFB6A4672
:102970001546264B03F118061446186859680833A3
:1029800003C4B3422246F7D107AA16461868204B63
:10299000206003F11807144618685968083303C407
:1029A000BB422246F7D118682060E020FFF78AFB7F
:1029B000002435F814000134FFF77CFB0E2CF8D10D
:1029C000E120FFF77FFB002436F814000134FFF705
:1029D00071FB0E2CF8D12C20FFF774FB4FF46144EF
:1029E0000020FFF767FB013CFAD12920FFF76AFBC3
:1029F0001120FFF767FB3520FFF764FB20460FB07F
:102A0000BDE8F040FFF756BB001C02428C3C0208B8
:102A1000A83C020838B504460D4DFFF78BFF0D4A60
:102A20000021284604F003FA0B4A0221284604F14B
:102A3000840504F0FCF9284600F0E4F80123256140
:102A400084F870302046FFF76DF9044B636138BDA0
:102A5000F02B0020B9260008D1260008B00A00207B
:102A600008B5034B0021186807F012FD30BF08BD00
:102A7000F41F0020024B0121186807F009BD00BFB8
:102A8000F41F00200248034B0360FFF7E5BD00BFC1
:102A9000B00A0020344C020870470000032813D805
:102AA000DFE800F002070A0E01221021074804F0B7
:102AB000ABBC01222021F9E701224FF48071F5E738
:102AC00001224FF40041F1E7704700BF00180242B5
:102AD000032813D8DFE800F002070A0E00221021B5
:102AE000074804F091BC00222021F9E700224FF4AE
:102AF0008071F5E700224FF40041F1E7704700BF15
:102B00000018024203280FD8DFE800F00206080B85
:102B10001021064804F07DBC2021FAE74FF48071B3
:102B2000F7E74FF40041F4E7704700BF0018024296
:102B30007047704710B5044604211EF0FDFF204683
:102B400010BD000010B5064B187838B1054C24684C
:102B50000C6005490968116000221A7010BD00BFA1
:102B6000BC0A0020C00A0020C40A00207FB54FF034
:102B7000FF360323144D154C04AA02F8013D7021C1
:102B800000960123284603F00DFF224600960423F9
:102B90007021284603F09AFF237862781B0203F421
:102BA0007063C3F1EF039B1A094A1360A378E278BC
:102BB0001B0203F470631344064A13600122064BA0
:102BC0001A7004B070BD00BF682C0020B80A002045
:102BD000C40A0020C00A0020BC0A00207047000080
:102BE00008B54FF40051044804F008FC01280CBF5C
:102BF0003520002008BD00BF000802424068704731
:102C000041607047094A136843F080731360A2F56E
:102C10004E424C3A1168064B0B431360A2F57B629F
:102C2000136843F001031360704700BFFCED00E040
:102C300055CEACC5521A02EB5302B2FBF3F070470B
:102C4000014B1868704700BF041000E0704710B5D2
:102C500004460C211EF070FF204610BD10B503681D
:102C600004461B6931B19847A26863689B1A1844EF
:102C7000606010BD9847A060FBE70000012210B51E
:102C80001C491D48D1F8883043F47003C1F88830DE
:102C90001A4B1A600022DA611A621C682040186020
:102CA00017489A62DA621A6358639A63D8631A649F
:102CB00058649A64186820F4802018601A654FF0F0
:102CC00000638B600F4B9A6902F04042B2F1404FB3
:102CD0000FD1DA69D20741BF0B4ADA6002F1443200
:102CE000DA60DA6942F00202DA61DA6942F001027E
:102CF000DA6110BD00ED00E0E3EAE2EA000C024414
:102D000080020101002002403B2A190810B54D4AFB
:102D10004D49D36903F01803082B5FD003D8002B6B
:102D200055D04A4B58E0102B5AD0182BF9D1906A45
:102D3000936AC3F3052307EE103A936A946BC3F3C7
:102D40000013C4F3CC04634307EE903A00F003038E
:102D5000022BF8EEE76A45D0032B5BD0012B6DD137
:102D60001068536B394AC0F3C100C24007EE902A85
:102D7000B8EEE76AF8EEC77AC3F3080386EE277A5F
:102D800007EE903A9FED326AF8EEE77AE6EE867A41
:102D9000F7EE006A77EEA67A67EE277A294B5B6B2F
:102DA000C3F34623013307EE103AB8EEC77AC7EEF5
:102DB000876AFCEEE66AC1ED006A224B254A1B6A6F
:102DC00003F00F03D25C0B68D3400B6010BD126898
:102DD0001E4BC2F3C102D3400B60EEE71E4BFBE774
:102DE0001E4BF9E7536B9FED1A6AC3F3080307EE16
:102DF000903AF8EEE77AE6EE867AF7EE006AB8EEF9
:102E0000C77A77EEA67A9FED166AC6EE076A67EE76
:102E1000A67AC3E7536B9FED0E6AC3F3080307EE70
:102E2000903AF8EEE77AE6EE867AF7EE006AB8EEC8
:102E3000C77A77EEA67A9FED0B6AE6E7DFED0A7AAE
:102E4000ACE700BF000C0244100000200090D0034B
:102E500000000039744D020800093D0040787D01F2
:102E60000024744A20BCBE4B00000000FEE7FEE7D1
:102E7000FEE7FEE7FEE77047082004F0D3BA8020A3
:102E800004F0D0BA014804F04BBB00BFC02D0020B5
:102E9000014803F007BF00BFF02B002030B59DB004
:102EA0005022002108A81FF058FF1822002102A874
:102EB0001FF053FF1F4B1A6942F030021A611A6962
:102EC00002F030020192019A5A691007FCD50122E2
:102ED0004FF4A0230524CDE908236422022303250F
:102EE000CDE914420422CDE912351693CDE917231A
:102EF0000821002308A8CDE919131B9302F0BEF89E
:102F000008B172B6FEE71F23CDE90400CDE9060043
:102F1000214602A8CDE9023501F074FF08B172B66E
:102F2000FEE7054A136823F0300343F020031360E3
:102F30001DB030BD000802440020024010B50A4C0C
:102F400000220821204604F05FFA0A2000F09CFCD1
:102F500020460122082104F057FABDE810404FF442
:102F6000967000F091BC00BF0018024280B5102797
:102F7000002594B03A4600210CA81FF0EEFEADF8F3
:102F80002C5004F047F84FF0C04301260D93043352
:102F90000E93BF4B0CA80F93ADF8306004F04EF8C1
:102FA00014A820F8245DBB4C04F06AF8042004F057
:102FB0001DF800F033FCFFF771FFFFF7A7FE1422A6
:102FC00029460CA81FF0C9FED4F88C302A4643F0DD
:102FD0000203C4F88C30D4F88C3048F2381103F076
:102FE00002030493049BD4F88C30AB4843F04003B5
:102FF000C4F88C30D4F88C304FF0080803F040034C
:103000000593059BD4F88C3043F00803C4F88C304A
:10301000D4F88C3003F008030693069BD4F88C3068
:1030200043F48073C4F88C30D4F88C3003F480738C
:103030000793079BD4F88C3043F08003C4F88C309E
:10304000D4F88C3003F080030893089BD4F88C30BC
:1030500043F00403C4F88C30D4F88C3003F004033C
:103060000993099BD4F88C3043F02003C4F88C30CA
:10307000D4F88C3003F020030A930A9BD4F88C30E8
:103080003B43C4F88C30D4F88C303B400B930B9B03
:1030900004F0BAF932460821804804F0B5F9324606
:1030A0004FF400517E4804F0AFF92A4640217D4894
:1030B00004F0AAF948F23003CDE90C3603230CA939
:1030C00075480F930E9504F0F7F8774B0CA97748E5
:1030D000CDE90C830E9504F0EFF8CDE90C864FF4A2
:1030E00000580CA96D48CDE90E5504F0E5F80CA97F
:1030F0006B48CDE90C86CDE90E5504F0DDF80CA93E
:103100006848CDE90C850E9504F0D6F840230CA94B
:103110006448CDE90C36CDE90E5504F0CDF84FF4F6
:1031200084734FF080080CA95B48CDE90C36CDE9DB
:103130000E5504F0C1F85E4B0CA95748CDE90C833D
:103140000E9504F0B9F82A4629460E2003F0C0FE79
:103150000E2003F0F1FE2A462946122003F0B8FEA5
:10316000122003F0E9FE0E2003F0F4FEFFF7E6FE66
:10317000D4F888302A4643F00203C4F88830D4F8E3
:103180008830294603F0020303936020039B03F079
:103190009FFE602003F0D0FE464C474B2046236044
:1031A0004FF44003C4E90E354FF040432564C4E9B1
:1031B000113802F00DFB08B172B6FEE73946204621
:1031C00003F04EFE08B172B6FEE73C4B3C4A9880D5
:1031D000C3E905001A6018461E6201F0CFFC08B171
:1031E00072B6FEE701F006FD08B172B6FEE7354C97
:1031F000354B364DC4E90206C4E90400C4E90600B3
:1032000020622046C4E9005303F06FFB014608B179
:1032100072B6FEE7204601F0F7FC014608B172B62F
:10322000FEE7204601F01CFD024608B172B6FEE73B
:103230002749139027480A24016001F58271C0E9EB
:1032400001124FF48051C0E909124FF40011C1631B
:103250000F210225CDE90C410721CDE90E150421EE
:10326000CDE91017112112910CA9C0E90322C0E980
:103270000572C0E90722C0E90B22C0E90D22C0E9AE
:10328000102280F8482002F0E7F928B372B6FEE772
:1032900000010100000C024400180242002002421A
:1032A000001C02420008024200003110000C0242E1
:1032B00000002110F02B002050130240182D002098
:1032C00000300240682C0020E543C010002C004470
:1032D000000400473C2D0020324C334B4FF08071EE
:1032E000C4E900361623C4E903134FF08053CDE937
:1032F0000C00A060C4E90550C4E90700C4E90960F6
:10330000C4E90B30C4E90D00204602F03FFF08B1CC
:1033100072B6FEE7CDE90C000CA9204603F030F9A7
:1033200008B172B6FEE700221E48114605F05FFFA5
:1033300000221C48114605F089FF642000F0A4FA21
:1033400000221848114605F076FE0022032311469C
:10335000009314484FF4407305F0ECFE002211482E
:10336000114605F068FE0223009300230D481A461B
:10337000194605F0DFFE282000F086FA01210948F1
:1033800005F00AFE4FF000430848094AC0E900234F
:1033900003F05CFF08B172B6FEE704F0C0FA00F07B
:1033A00065F8FEE7BC2C002000140047942D002097
:1033B000001403400268034B9A4201D100F052BA54
:1033C000704700BF0010004072B6FEE770B5214B99
:1033D00088B0D3F89C20064642F01002C3F89C2027
:1033E000D3F89C30694603F01003019302A8019BB7
:1033F00002F012F9059B3BBB02F0FCF8164C174B90
:1034000023606323E360164BB0FBF3F00023013825
:10341000606020462361A36004F02AFA054668B97B
:10342000204604F015F8054640B90F2E10D8024684
:103430003146312003F04CFD0A4B1E60312003F071
:103440007BFD284608B070BD02F0D4F84000D5E7F7
:103450000125F3E7000C0244C02D002000100040BD
:10346000A0860100180000200020704705F018BD5C
:10347000704700000268094B82B09A420CD1084B99
:10348000D3F8882042F48052C3F88820D3F88830DB
:1034900003F480530193019B02B070470030024057
:1034A000000C02440268094B82B09A420CD1084BCE
:1034B000D3F8882042F08042C3F88820D3F88830BF
:1034C00003F080430193019B02B070470014034056
:1034D000000C024410B50446CAB01422002103A80F
:1034E0001FF03BFC4FF48472002108A81FF035FC4C
:1034F0002268224B9A423FD100224FF4806308A8F1
:10350000CDE9082300F0AAFA08B1FFF75DFF1C4CD3
:103510004FF44072D4F88C30002143F00203C4F819
:103520008C30D4F88C30174803F002030193019BD0
:103530001223CDE903230323CDE90513062303A9B1
:10354000079303F0B9FE104BD3F8002142F4002298
:10355000C3F80021D3F8002142F48022C3F80021EF
:10356000D4F8A83043F48073C4F8A830D4F8A83055
:1035700003F480730293029B4AB010BD002C0044F8
:10358000000C024400040242000400442DE9F04310
:103590000446CFB01422002107A81FF0DEFB4FF431
:1035A000847200210CA81FF0D8FB22686E4B9A424F
:1035B00040F0D68000220223CDE90C23032205230C
:1035C0000120CDE90E2308220223CDE91302322186
:1035D0004FF480220CA8CDE9101312931792439355
:1035E00000F03CFA08B1FFF7EFFE604B0224D3F87D
:1035F0009420002642F48012C3F89420D3F894203B
:10360000032502F480120092009AD3F88C20092737
:1036100042F04002C3F88C20D3F88C2007A902F0B6
:1036200040020192019AD3F88C20514842F02002C6
:10363000C3F88C20D3F88C204FF00A0802F0200247
:103640000292029AD3F88C204FF0040942F004024F
:10365000C3F88C20D3F88C2002F004020392039A62
:10366000D3F88C2042F00802C3F88C20D3F88C20C9
:1036700002F008020492049AD3F88C2042F002026D
:10368000C3F88C20D3F88C2002F002020592059A30
:10369000D3F88C2042F08002C3F88C20D3F88C3011
:1036A000CDE9096503F080030693069B4FF4007390
:1036B0000B97CDE9073403F0FFFD4FF4806307A9B2
:1036C0002C48CDE90734CDE909650B9703F0F4FDEB
:1036D000402307A92648CDE90734CDE90965CDF88F
:1036E0002C8003F0E9FD07A92348CDE90794CDE933
:1036F00009650B9703F0E0FD4FF4405307A91F48FD
:10370000CDE90734CDE909650B9703F0D5FD012319
:1037100007A91948CDE90734CDE90965CDF82C8012
:1037200003F0CAFD062307A915480B93CDE907440A
:10373000CDE9096503F0C0FD0C2307A91148CDE9C7
:103740000734CDE909650B9703F0B6FD07A90C48CE
:10375000CDE90794CDE90965CDF82C8003F0ACFDE7
:103760004FB0BDE8F08300BF00140047000C0244D6
:10377000001802420014024200080242000C0242F9
:1037800000040242001C02422DE9F04186B01422DE
:10379000002101A81FF0E1FA1B4B1E688EBB4FF001
:1037A0000108C3F80080194B0227D3F894200325A1
:1037B00042F48032C3F89420D3F894300C2403F4FC
:1037C00080330093009B4CF2B37301A91048CDE9FC
:1037D0000137CDE9045403F06FFD01A90D48CDE98F
:1037E0000187CDE90365059403F066FD4FF680730C
:1037F00001A90948CDE90137CDE90365059403F036
:103800005BFD06B0BDE8F081C80A0020000C024450
:10381000000C0242001402420010024210B50320C4
:1038200003F044FB01F046FA0B4B0C4A1B6A03F011
:103830000F03D35CD8400A4B1860042003F09EFBB2
:103840000F20FFF7C3FD044618B9FFF711FE20460D
:1038500010BD0124FBE700BF000C0244744D0208B8
:1038600010000020034A044B11681B780B441360BE
:10387000704700BF0C2E002014000020014B186878
:10388000704700BF0C2E002038B50446FFF7F6FF46
:103890000546631C1EBF044B1B78E418FFF7EEFFC0
:1038A000401BA042FAD338BD1400002070B5344C40
:1038B0000546236823F080632360FFF7DFFF064699
:1038C00023681A014ED4E36A2A6823F47C5323F058
:1038D000030313436A6843EA0223E362EB682A693D
:1038E000013B013A5B02120402F4FE029BB2134355
:1038F000AA68013AC2F3080213436A69013A120640
:1039000002F0FE421343E363E36AAA6923F00C0367
:103910001343E362E36AEA6923F020031343E3629B
:10392000E36A6A6A1343E362E36A23F01003E36223
:10393000236C2A6A23F47F4323F0F80343EAC2038B
:103940002364E36A43F01003E362236843F0806377
:103950002360FFF793FF0546094C23681B0108D538
:10396000002005E0FFF78AFF801B0228A8D903206A
:1039700070BDFFF783FF401B0228EED9F7E700BFB9
:10398000000C024470B5344C0546236823F0805384
:103990002360FFF773FF064623689A004ED4236B1B
:1039A0002A6823F47C5323F0030313436A6843EA31
:1039B00002232363EB682A69013B013A5B0212048C
:1039C00002F4FE029BB21343AA68013AC2F3080252
:1039D00013436A69013A120602F0FE42134363641C
:1039E000236BAA6923F00C0313432363236BEA6957
:1039F00023F0200313432363236B6A6A1343236377
:103A0000236B23F010032363A36C2A6A23F47F4300
:103A100023F0F80343EAC203A364236B43F01003CB
:103A20002363236843F080532360FFF727FF054695
:103A3000094C23689B0008D5002005E0FFF71EFF16
:103A4000801B0228A8D9032070BDFFF717FF401B79
:103A50000228EED9F7E700BF000C024400212DE94F
:103A6000F8430446D0E9002302F0807050EA0103D5
:103A700008D0A04AA16DD2F8E83023F040430B43B0
:103A8000C2F8E8300021D4E9002302F0010050EA36
:103A9000010316D0E36D052B2BD8DFE803F00903F3
:103AA0002509090904F10800FFF700FF064648B997
:103AB000904AE16DD2F8D83023F007030B43C2F8E7
:103AC000D8300026D4E90023002102F0020050EA99
:103AD000010307D0236E102B36D00CD88BB1082BE6
:103AE00011D0012635461DE004F13000FFF74AFFF2
:103AF000DCE70126E6E7202B03D0282B01D0182B8A
:103B0000EFD1354604E004F10800FFF7CFFE05468B
:103B1000FDB9784A216ED2F8D83023F038030B4330
:103B2000C2F8D8300021D4E9002302F0040050EAA2
:103B3000010322D0636E802B39D00CD89BB1402B6F
:103B40002FD00126354618E004F13000FFF71AFFA8
:103B5000DDE72E46E6E7B3F5807F04D0B3F5A07F1E
:103B600001D0C02BEDD13DBB624A616ED2F8D83096
:103B700023F4E0730B43C2F8D8300021D4E90023CA
:103B800002F0080050EA01032BD0A36EB3F5806F5A
:103B900041D013D8DBB1B3F5007F36D001263546CE
:103BA0001FE004F10800FFF781FE0546DBE704F1A2
:103BB0003000FFF7E7FEF8E72E46DEE7B3F5006FCB
:103BC00005D0B3F5206F02D0B3F5C06FE6D13DBB91
:103BD000484AA16ED2F8D83023F460630B43C2F890
:103BE000D8300021D4E9002302F0100050EA01038C
:103BF0002BD0E36EB3F5005F41D013D8DBB1B3F542
:103C0000805F36D0012635461FE004F10800FFF73B
:103C10004DFE0546DBE704F13000FFF7B3FEF8E7A1
:103C20002E46DEE7B3F5804F05D0B3F5A04F02D0A6
:103C3000B3F5405FE6D13DBB2E4AE16ED2F8D830F5
:103C400023F4E0430B43C2F8D8300021D4E9002329
:103C500002F0200050EA01032BD0236FB3F5803F20
:103C600041D013D8DBB1B3F5004F36D0012635462D
:103C70001FE004F10800FFF719FE0546DBE704F139
:103C80003000FFF77FFEF8E72E46DEE7B3F5003F92
:103C900005D0B3F5203F02D0B3F5C03FE6D13DBB20
:103CA000144A216FD2F8D83023F460330B43C2F8A2
:103CB000D8300021D4E9002302F0400050EA01038B
:103CC0002DD0636FB3F5002F43D015D8EBB1B3F50A
:103CD000802F38D00126354621E004F10800FFF797
:103CE000E5FD0546DBE704F13000FFF74BFEF8E7A2
:103CF0002E46DEE7000C0244B3F5801F05D0B3F575
:103D0000A01F02D0B3F5402FE4D13DBB934A616FB1
:103D1000D2F8D83023F4E0130B43C2F8D830002196
:103D2000D4E9002302F0800050EA01032BD0A36FF6
:103D3000B3F5800F41D013D8DBB1B3F5001F36D0F7
:103D4000012635461FE004F10800FFF7AFFD0546E8
:103D5000DBE704F13000FFF715FEF8E72E46DEE75B
:103D6000B3F5000F05D0B3F5200F02D0B3F5C00FA7
:103D7000E6D13DBB794AA16FD2F8D83023F4600375
:103D80000B43C2F8D8300021D4E9002302F480703C
:103D900050EA01032BD0E36FB3F1007F42D013D878
:103DA000DBB1B3F1807F37D0012635461FE004F147
:103DB0000800FFF77BFD0546DBE704F13000FFF765
:103DC000E1FDF8E72E46DEE7B3F1806F05D0B3F1F1
:103DD000A06F02D0B3F1407FE6D145BB5F4AE16FEF
:103DE000D2F8D83023F0E0630B43C2F8D83000217A
:103DF000D4E9002302F4007050EA01032DD0D4F876
:103E00008030B3F1805F3FD013D8DBB1B3F1006FE6
:103E100034D00126354620E004F10800FFF746FDC6
:103E20000546DAE704F13000FFF7ACFDF8E72E466F
:103E3000DDE7B3F1005F05D0B3F1205F02D0B3F14D
:103E4000C05FE6D12DBB454AD4F88010D2F8D830F7
:103E500023F060530B43C2F8D8300021D4E900238B
:103E600002F4806050EA010325D0D4F88430052B99
:103E700039D8DFE803F015103315151504F10800E3
:103E8000FFF714FD0546DDE704F13000FFF77AFD8A
:103E9000F8E72E46E1E704F10800FFF707FD0546C5
:103EA00025BB2E4AD4F88410D2F8DC3023F0070367
:103EB0000B43C2F8DC300021D4E9002302F4006097
:103EC00050EA010325D0D4F88830202B3ED00FD8FB
:103ED000A3B1102B34D0012635461AE004F130008E
:103EE000FFF750FDDBE701263546E4E72E46E2E723
:103EF000402B03D0502B01D0302BECD15DBB174AA7
:103F0000D4F88810D2F8DC3023F070030B43C2F8E9
:103F1000DC300021D4E9002302F4805050EA010390
:103F200034D0D4F88C30B3F1007F00F0018117D881
:103F3000FBB1B3F1807F00F0F5800126354625E026
:103F400004F10800FFF7B2FC0546D7E704F13000A2
:103F5000FFF718FDF8E72E46DBE700BF000C024430
:103F6000B3F1806F05D0B3F1A06F02D0B3F1407F01
:103F7000E3D1002D40F0E180B74AD4F88C10D2F89C
:103F8000E03023F0E0630B43C2F8E0300021D4E9D5
:103F9000002302F4005050EA010317D0D4F8903007
:103FA000B3F5803F00F0D68000F2C980002B40F0CE
:103FB000CE80002D40F0D480A74AD4F89010D2F8DB
:103FC000E43023F440330B43C2F8E4300021D4E959
:103FD000002302F4804050EA010317D0D4F8943053
:103FE000B3F5802F00F0C98000F2BC80002B40F0B8
:103FF000C180002D40F0C780974AD4F89410D2F8C1
:10400000E43023F440230B43C2F8E4300021D4E928
:10401000002302F4004050EA010317D0D4F898308E
:10402000B3F5801F00F0BC8000F2AF80002B40F0A1
:10403000B480002D40F0BA80874AD4F89810D2F8A6
:10404000E43023F440130B43C2F8E4300020D4E9F9
:10405000002303F4806150EA010317D0D4F89C30A8
:10406000B3F5800F00F0AF8000F2A280002B40F08B
:10407000A780002D40F0AD80774AD4F89C10D2F88C
:10408000E43023F440030B43C2F8E4300021D4E9C8
:10409000002302F4803050EA010318D0D4F8A03095
:1040A000B3F1807F00F09780B3F1007F02D0002B46
:1040B00040F09780002D40F09780674AD4F8A01018
:1040C000D2F8E43023F040730B43C2F8E430002010
:1040D000D4E9002303F4006150EA010309D05E4BE8
:1040E000DA6922F40042DA61DA69D4F804110A4389
:1040F000DA610021D4E9002302F4003050EA010320
:1041000000F08880D4F8A430B3F5007F00F09D80E3
:104110006CD8002B73D0B3F5807F00F0908001261F
:10412000354677E004F10800FFF7C0FB054620E7BD
:1041300004F13000FFF726FCF8E72E4626E7B3F53A
:10414000003F3FF436AFB3F5403F3FF432AF0126B6
:1041500035463BE704F13000FFF714FC054628E73D
:104160002E4633E7B3F5002F3FF443AFB3F5402FAE
:104170003FF43FAF0126354648E704F13000FFF732
:1041800001FC054635E72E4640E7B3F5001F3FF436
:1041900050AFB3F5401F3FF44CAF0126354655E70D
:1041A00004F13000FFF7EEFB054642E72E464DE7EF
:1041B000B3F5000F3FF45DAFB3F5400F3FF459AFD7
:1041C0000126354662E704F13000FFF7DBFB0546C8
:1041D0004FE72E465AE704F13000FFF7D3FB0546C0
:1041E00068E70126354672E72E4670E7B3F5806F23
:1041F00005D0B3F5A06F02D0B3F5407F8FD14DBB92
:10420000154AD4F8A410D2F8DC3023F4E0630B4351
:10421000C2F8DC300021D4E9002302F4802050EA07
:1042200001032FD0D4F8A830B3F5005F45D015D8DE
:10423000EBB1B3F5805F3AD00126354622E004F1B8
:104240000800FFF733FB0546D9E704F13000FFF71C
:1042500099FBF8E72E46DDE7000C0244B3F5804FEA
:1042600005D0B3F5A04F02D0B3F5405FE4D14DBB0C
:10427000A04AD4F8A810D2F8DC3023F4E0430B4372
:10428000C2F8DC300020D4E9002303F0200150EA1A
:1042900001032DD0D4F8AC30B3F5003F43D013D890
:1042A000DBB1B3F5803F38D00126354620E004F17C
:1042B0000800FFF7FBFA0546D9E704F13000FFF7E5
:1042C00061FBF8E72E46DDE7B3F5802F05D0B3F5A7
:1042D000A02F02D0B3F5403FE6D14DBB854AD4F8BC
:1042E000AC10D2F8DC3023F4E0230B43C2F8DC300E
:1042F0000020D4E9002303F0400150EA01032DD04F
:10430000D4F8B030B3F5001F43D013D8DBB1B3F508
:10431000801F38D00126354620E004F10800FFF761
:10432000C5FA0546D9E704F13000FFF72BFBF8E7A3
:104330002E46DDE7B3F5800F05D0B3F5A00F02D010
:10434000B3F5401FE6D14DBB6A4AD4F8B010D2F89D
:10435000DC3023F4E0030B43C2F8DC300020D4E966
:10436000002303F0800150EA01032DD0D4F8B430CB
:10437000B3F1007F43D013D8DBB1B3F1807F38D0E5
:104380000126354620E004F10800FFF78FFA0546C4
:10439000D9E704F13000FFF7F5FAF8E72E46DDE73C
:1043A000B3F1806F05D0B3F1A06F02D0B3F1407FBD
:1043B000E6D14DBB4F4AD4F8B410D2F8DC3023F02C
:1043C000E0630B43C2F8DC300020D4E9002303F49F
:1043D000807150EA01032DD0D4F8B830B3F1005FFA
:1043E00044D013D8DBB1B3F1805F39D00126354614
:1043F00020E004F10800FFF759FA0546D9E704F177
:104400003000FFF7BFFAF8E72E46DDE7B3F1804F43
:1044100005D0B3F1A04F02D0B3F1405FE6D155BB58
:10442000344AD4F8B810D2F8DC3023F0E0430B4320
:10443000C2F8DC300021D4E9002302F4002050EA65
:1044400001032BD0D4F8C030B3F5003F4BD014D8C3
:10445000002B3CD0B3F5803F3FD0012635461DE010
:1044600004F10800FFF722FA0546D8E704F130000E
:10447000FFF788FAF8E72E46DCE7B3F5403F02D0B5
:10448000B3F5802FE9D19DBB1A4AD4F8C010D2F8F9
:10449000E83023F4E0230B43C2F8E8300021D4E9EC
:1044A000002302F4801050EA010338D0D4F8C4305D
:1044B000B3F5801F00F0D3801ED8002B00F0C3801E
:1044C000B3F5002F00F0C5800126354627E0094AE4
:1044D000936A43F400339362D5E704F10800FFF7D1
:1044E000E5F90546CFE704F13000FFF74BFAF8E7AE
:1044F0002E46D3E7000C0244B3F5C01F02D0B3F53B
:10450000001FE1D1002D40F0AF80B24AD4F8C410B2
:10451000D2F8E83023F460130B43C2F8E8300021EE
:10452000D4E9002302F4001050EA01031FD0D4F8AC
:10453000D4300122052B00F2998002FA03F313F024
:104540003B0F07D1580740F1918004F10800FFF7B5
:10455000ADF90546002D40F08C809E4AD4F8D41069
:10456000D2F8E83023F007030B43C2F8E83000200C
:10457000D4E9002303F4007150EA01030ED0D4F80B
:10458000D8200AB1082A76D1002D77D19149D1F8E7
:10459000E83023F008031343C1F8E8300021D4E9E0
:1045A000002302F0007050EA010371D08A4F7B6A49
:1045B00043F001037B62FFF761F980467B6AD9070C
:1045C0005ED5002D40F0A380824AD2F8F03013F47B
:1045D000407315D0D4F8F810994211D0D2F8F030C9
:1045E000D2F8F01023F4407341F48031C2F8F01097
:1045F000D2F8F01021F48031C2F8F010C2F8F03097
:10460000DA076FD4D4F8F800724A00F44073B3F5B7
:10461000407F78D1D169714B21F47C5103EA1013AA
:104620000B43D3616B4AD2F8F03023F44073C2F8E5
:10463000F030D4F8F830D2F8F010C3F30B030B438A
:10464000C2F8F03024E0634A936A43F40033936283
:1046500058E704F10800FFF729F9054652E704F18D
:104660003000FFF78FF9F8E72E4658E71646154653
:104670007DE72E467BE7012635468FE72E468DE700
:10468000FFF7FCF8A0EB0800022897D9032635466F
:10469000D4E90023002102F0806050EA010311D028
:1046A000D4F8C830102B3BD033D8B3BB002D3DD14C
:1046B000484AD4F8C810D2F8E83023F030030B434E
:1046C000C2F8E8300021D4E9002302F4800050EA67
:1046D00001033DD0D4F8CC3053B3402B48D0012651
:1046E000354635E0FFF7CAF841F288398046394F40
:1046F000D7F8F0309B0785D4FFF7C0F8A0EB08008F
:104700004845F5D9C2E7D36923F47C5389E72E469F
:10471000BEE7202BCAD0302BC8D001263546D1E7C2
:104720002C4A936A43F400339362BFE72E46C9E7ED
:10473000284A936A43F400339362FDB9254AD4F8BA
:10474000CC10D2F8E43023F040030B43C2F8E4303D
:104750000021D4E9002302F4000050EA01031FD035
:10476000D4F8D03063B1802B2BD00126354617E02A
:1047700004F10800FFF79AF80546DEE72E46E7E762
:10478000144A936A43F40033936205BB114AD4F888
:10479000D010D2F8E43023F080030B43C2F8E430A9
:1047A0000021D4E9002302F0006050EA010327D081
:1047B000D4F8E030042B41D8DFE803F012353B1782
:1047C000170004F10800FFF771F80546DDE72E46F3
:1047D000E6E700BF000C024400080244CFFFFF00E0
:1047E0009E4A936A43F40033936255BB9B4AD4F8C4
:1047F000E010D2F8E03023F007030B43C2F8E030BA
:104800000021D4E9002302F0805050EA010329D0AE
:10481000D4F8E430102B45D015D8BBB3082B3BD0CF
:10482000012635461EE004F10800FFF73FF8054673
:10483000DBE704F13000FFF7A5F8F8E7012635467D
:10484000DEE72E46DCE7182B01D0202BE8D175BB24
:10485000824AD4F8E410D2F8E03023F038030B4356
:10486000C2F8E0300021D4E9002302F0005050EA01
:1048700001032ED0D4F8E830802B4BD019D8002B70
:104880003CD0402B40D00126354622E0734A936A43
:1048900043F400339362DAE704F10800FFF706F807
:1048A0000546D4E704F13000FFF76CF8F8E72E4630
:1048B000D8E7C02B02D0B3F5807FE4D17DBB674A37
:1048C000D4F8E810D2F8E03023F4E0730B43C2F8D8
:1048D000E0300021D4E9002302F0804050EA0103D7
:1048E00033D0D4F8EC30B3F5806F49D019D80BB37E
:1048F000B3F5007F3ED00126354626E0574A936A3D
:1049000043F400339362D9E704F10800FEF7CEFFC9
:104910000546D3E704F13000FFF734F8F8E72E46F8
:10492000D7E7B3F5006F05D0B3F5206F02D0B3F52C
:10493000C06FE0D14DBB494AD4F8EC10D2F8E0305A
:1049400023F460630B43C2F8E0300021D4E9002374
:1049500002F0004050EA01032DD0D4F8F030B3F556
:10496000005F43D013D8DBB1B3F5805F38D00126A8
:10497000354620E004F10800FEF798FF0546D9E728
:1049800004F13000FEF7FEFFF8E72E46DDE7B3F551
:10499000804F05D0B3F5A04F02D0B3F5405FE6D10C
:1049A0004DBB2E4AD4F8F010D2F8E03023F4E043A7
:1049B0000B43C2F8E0300020D4E9002303F00101EA
:1049C00050EA01032DD0D4F8F430B3F5803F3ED047
:1049D00013D8DBB1B3F5004F33D00126354620E0C4
:1049E00004F10800FEF762FF0546D9E704F1300044
:1049F000FEF7C8FFF8E72E46DDE7B3F5003F05D028
:104A0000B3F5203F02D0B3F5C03FE6D125BB134A32
:104A1000D4F8F410D2F8E03023F460330B43C2F83A
:104A2000E0300020D4E9002303F0020150EA010342
:104A300027D0D4F8DC30032B7DD8DFE803F0161143
:104A4000761604F10800FEF731FF0546DEE704F1B3
:104A50003000FEF797FFF8E72E46E2E7000C02442D
:104A6000454A936A43F400339362002D66D1424A6B
:104A7000D4F8DC10D2F8E43023F003030B43C2F87F
:104A8000E4300020D4E9002303F0040150EA0103DC
:104A900015D0D4F8BC30B3F5807F51D0B3F5007F8A
:104AA00054D0002B58D1002D59D1334AD4F8BC1022
:104AB000D2F8E83023F440730B43C2F8E83000200A
:104AC000D4E9002303F0100150EA010318D0D4F810
:104AD0000031202B45D0302B06D0102B47D1264A51
:104AE000936A43F400339362002D42D1224AD4F8F2
:104AF0000011D2F8E43023F030030B43C2F8E43065
:104B00000020D4E9002303F0080150EA010309D092
:104B1000194AD4F8FC10D2F8E83023F0C0030B4354
:104B2000C2F8E8303046BDE8F88304F10800FEF72B
:104B3000BDFE054699E701263546A2E72E46A0E7C9
:104B40000D4A936A43F400339362ACE704F1080022
:104B5000FEF7ACFE0546A6E701263546AFE72E4632
:104B6000ADE704F13000FEF70DFF0546BCE7012676
:104B7000C6E72E46C4E700BF000C024410B5044649
:104B800008B9012010BD437F03F0FF0213B902777B
:104B9000FEF770FC022363772379FBB92368144A7C
:104BA0005A612268936823F018039360627923683E
:104BB000E2B94FF0FF321A61226861699368002000
:104BC00023F060030B4393602268A169936823F08C
:104BD00080030B43936001236377D3E7D4E9021288
:104BE000204602F075FE0028E0D0CAE72269E2E71D
:104BF000B71DC104034A0020136843F0010313608A
:104C0000704700BF0004034010B590F84130DBB29C
:104C1000202B23D190F84020012A1FD0012280F8B8
:104C200040202422046880F84120226822F00102FA
:104C300022600468226822F480522260046822689C
:104C40001143216001680A6842F001020A6080F89D
:104C50004130002380F84030184610BD0220FCE7A8
:104C600010B590F84120D2B2202A21D190F84030DE
:104C7000012B1DD0012380F840302423046880F8E4
:104C80004130236823F0010323600468236823F480
:104C9000706343EA0121216001680B6843F001035E
:104CA0000B60002380F8412080F84030184610BD8A
:104CB0000220FCE710B54C4BDA6902F01802082A12
:104CC00000F08C80DA6912F0180F09D11A68474891
:104CD00012F0200F03D01B68C3F3C103D84010BDEE
:104CE000DA6902F01802102A7AD0DA6902F01802A2
:104CF000182A77D1996A986A9C6AC0F305209A6B42
:104D00000028ECD007EE900AC2F3CC02C4F30010E6
:104D10004243F8EEE76A07EE902A01F00302012A07
:104D2000FAEEE97AF7EE005A0FD0032A48D05B6B0F
:104D30009FED2F6AC3F3080307EE103AB8EEC77A67
:104D400077EE277A77EEA57A37E01A68920627D5AC
:104D50001968264AC1F3C101CA4007EE102AB8EE0D
:104D6000C76A5B6B86EE267AC3F3080306EE903AB9
:104D7000F8EEE66A76EEA77A77EEA57A1A4B67EE3A
:104D8000877A5B6BC3F34623013307EE103AF8EEE4
:104D9000C76A87EEA67AFCEEC77A17EE900A9EE7FE
:104DA0005B6B9FED146AC3F3080307EE103AB8EE8D
:104DB000C77A77EE277A77EEA57A86EE267ADDE750
:104DC0005B6B9FED0D6AC3F3080307EE103AB8EE74
:104DD000C77A77EE277A77EEA57AEEE707487EE77F
:104DE00007487CE701487AE7000C02440090D003B2
:104DF0000024744A0024744C20BCBE4B00093D00C2
:104E000040787D012DE9F0410D46044610B901209E
:104E1000BDE8F081894A136803F00F038B4276D313
:104E20002368D9067FD423681A070DD584492069E1
:104E30000A6A120902F07002904281BF0B6A23F4E1
:104E4000E06343EA00130B6223685B070BD57C4ADF
:104E5000E068116A01F07001884281BF136A23F093
:104E600070030343136223689F070BD5744AA0683D
:104E7000116A01F00F01884281BF136A23F00F030A
:104E8000034313622368DE075CD42368980700F1AC
:104E9000AF806A4A136803F00F03AB4200F2B5809B
:104EA0002368590700F1BD8023681A070DD56449AE
:104EB00020690A6A120902F0700290423FBF0B6A31
:104EC00023F4E06343EA00130B622368DB060DD58D
:104ED0005B4960690A6A120A02F0700290423FBFA1
:104EE0000B6A23F4E04343EA00230B62FFF7E2FE80
:104EF000534B544A1B6A03F00F03D35CD840524B08
:104F00001860524BBDE8F0411868FEF75FBA1368AD
:104F100023F00F030B431360136803F00F038B425E
:104F20007FF475AF7CE7464960690A6A120A02F0AD
:104F30007002904281BF0B6A23F4E04343EA0023EE
:104F40000B6270E761683E4B03291A681DD112F0AD
:104F5000007F3FF45CAFDA69394F22F003020A4365
:104F6000DA61FEF78BFC63680646032B41F2883852
:104F700018D1FB6903F01803182B86D0FEF77EFCCE
:104F8000801B4045F5D9032042E7022902D112F4E3
:104F9000003FDEE7012902D112F4007FD9E712F0C9
:104FA000020FD6E7022B0BD1FB6903F01803102B7D
:104FB0003FF46BAFFEF762FC801B4045F4D9E2E79B
:104FC000012B10D1FB6903F01803082B3FF45DAFF0
:104FD000FEF754FC801B4045F4D9D4E7FEF74EFCA5
:104FE000801B4045CFD8FB6913F0180FF6D14CE772
:104FF000134AA068116A01F00F0188423FBF136A8B
:1050000023F00F030343136243E7136823F00F03F6
:105010002B431360136803F00F03AB427FF4F7AE2A
:105020003EE7074AE068116A01F0700188423FBF1D
:10503000136A23F070030343136235E70020024034
:10504000000C0244744D02081000002018000020DB
:1050500008B5FFF72FFE064B064A1B6A03F00F0345
:10506000D35C03F01F03D840034B186008BD00BF9A
:10507000000C0244744D0208100000202DE9F0419C
:10508000044608B901204EE0A44BDE699F6A03681C
:1050900006F01806DA0607F0030710D5082EC369D4
:1050A00003D0182E24D1022F22D1002BEAD09B4A04
:1050B000216A936923F47C1343EA014393612368D3
:1050C000D90743D423689A0700F1A0802368180702
:1050D00000F1F9802368590700F1248123689D06B7
:1050E00000F19F81A06A002840F0C08100201AE0F2
:1050F0008A4DD3B12B6843F480732B60FEF7BEFB5F
:1051000080462B689B0507D5AB69226A23F47C1384
:1051100043EA0243AB61D2E7FEF7B0FBA0EB080025
:105120000228EED90320BDE8F0812B6823F48073B8
:105130002B60FEF7A3FB80462B689805BFD5FEF7D2
:105140009DFBA0EB08000228F6D9EBE7102E626861
:1051500003D0182E04D1032F02D1002AB2D191E737
:10516000B2F5803F6D4B03D11A6842F480320BE0F8
:10517000DAB91A6822F480321A601A6822F48012AE
:105180001A601A6822F480221A6063687BB3FEF703
:1051900075FB8046614D2B689B0393D4FEF76EFB35
:1051A000A0EB08006428F6D9BCE7B2F5A02F08D11F
:1051B0001A6842F480221A601A6822F480121A6077
:1051C000D2E7B2F5A81F1A6806D142F480221A600D
:1051D0001A6842F48012F2E722F480321A601A68E8
:1051E00022F480221A601A6822F48012CCE7FEF7BB
:1051F00045FB8046494D2B6898037FF563AFFEF76A
:105200003DFBA0EB08006428F5D98BE7E3681EB1ED
:10521000182E2FD1012F2DD1002B3FF433AF76B1B3
:10522000FEF72CFB07463D4D2B6899071CD52B69D3
:10523000626923F4FE0343EA02432B6146E7374ADF
:105240002069116801F018018142E9D0136823F048
:10525000180303431360FFF7FBFE314B1868FEF79A
:10526000B5F80028DCD00DE7FEF708FBC01B0228CC
:10527000DAD957E7294DABB12B68226923F018031F
:1052800013432B602B6843F001032B60FEF7F6FA03
:1052900007462B689A07CAD4FEF7F0FAC01B02280B
:1052A000F7D93FE72B6823F001032B60FEF7E6FAFE
:1052B00007462B689B077FF509AFFEF7DFFAC01B97
:1052C0000228F6D92EE7A369144D9BB1D5F8F0302A
:1052D00043F08063C5F8F030FEF7D0FA0746D5F802
:1052E000F0301A013FF5F6AEFEF7C8FAC01B0228EF
:1052F000F5D917E7D5F8F03023F08063C5F8F03022
:10530000FEF7BCFA0746D5F8F0301B017FF5E2AE98
:10531000FEF7B4FAC01B0228F5D903E7000C0244DB
:1053200018000020B14D6B6AD80708D5A268B04BB1
:10533000012A14D1D3F8F02042F0010220E06B6A78
:1053400043F001036B62FEF799FA07466B6AD907CF
:10535000ECD4FEF793FAC01B0228F7D9E2E622BB91
:10536000D3F8F02022F00102C3F8F020D3F8F020A7
:1053700022F08002C3F8F020D3F8F02022F00402DB
:10538000C3F8F020A368DBB3FEF778FA41F288385F
:105390000746974DD5F8F0309A073FF59FAEFEF7D8
:1053A0006DFAC01B4045F5D9BCE6052A0CD1D3F8EF
:1053B000F02042F00402C3F8F020D3F8F02022F0ED
:1053C0008002C3F8F020B5E7852AD3F8F02008D191
:1053D00042F00402C3F8F020D3F8F02042F080023B
:1053E000EFE722F00102C3F8F020D3F8F02022F01A
:1053F0000402C3F8F020D3F8F02022F08002BFE7C7
:10540000FEF73CFA41F288380746794DD5F8F0307E
:105410009B077FF563AEFEF731FAC01B4045F5D917
:1054200080E6636A724D83B12B6843F480532B602E
:10543000FEF724FA07462B6898043FF553AEFEF7B3
:105440001DFAC01B0228F6D96CE62B6823F48053A2
:105450002B60FEF713FA07462B6899047FF542AEDE
:10546000FEF70CFAC01B0228F6D95BE6182E604D39
:1054700073D02B68022823F080732B6059D1FEF77C
:10548000FDF906462B689A014DD4AB6AE26A23F413
:105490007C5323F003031343226B43EA0223AB62E2
:1054A000A36BE26B013B013A5B02120402F4FE02C1
:1054B0009BB21343626B013AC2F308021343226C9E
:1054C000013A120602F0FE4213436B63AB6A23F00B
:1054D0001003AB62E36CDB00AB63AB6A43F0100319
:1054E000AB62AB6A626C23F00C031343AB62AB6A32
:1054F000A26C23F020031343AB62AB6A3C4C43F431
:105500008033AB622B6843F080732B60FEF7B6F9F3
:10551000054623689B013FF5E9ADFEF7AFF9401B57
:105520000228F6D9FEE5FEF7A9F9801B0228A9D9C1
:10553000F8E5FEF7A3F90446286810F0007006D1DC
:10554000AB6A23F4E02323F00303AB62EBE5FEF741
:1055500095F9001B0228EFD9E4E50128AA6A6B6BD4
:105560003FF4E1ADE06A02F0030181427FF48AADCD
:10557000216BC2F305228A427FF484AD626BC3F3D0
:105580000801013A91427FF47DADA26BC3F346213D
:10559000013A91427FF476ADE26BC3F30641013AE2
:1055A00091427FF46FAD226CC3F30663013A9342DC
:1055B0007FF468ADAB6BE26CC3F3CC0393423FF472
:1055C00095AD0B4DAB6A23F01003AB62FEF756F9B5
:1055D0000646FEF753F9B042FBD0E36CDB00AB6349
:1055E000AB6A43F01003AB6280E500BF00080244E1
:1055F000000C024408B5FFF72BFD054B054A1B6A5A
:10560000C3F30213D35C03F01F03D84008BD00BFEF
:10561000000C0244844D02081F230D4A0360D36925
:1056200003F003034360136A03F00F02826003F088
:105630007002C2601A091B0A03F07003436102F092
:105640007002044B02611B6803F00F030B6070478C
:10565000000C02440020024070B50E461546044678
:1056600050B390F8513003F0FF021BB980F850207E
:10567000FEF78AF804F10801206801F021FDA26814
:105680003146206801F082FDE36AA268294660681D
:1056900001F0A6FD2268A168002052F8213043F0F5
:1056A000010342F82130054A136843F000431360B8
:1056B000012384F8513070BD0120FCE7000400474D
:1056C00010B541EA0203064C0343234018B90029F0
:1056D00014BF084610462040C01A18BF012010BD54
:1056E0000000FFFF28B190F8200029B972B91046D8
:1056F000704739B191F8200091F820308342F5D0FD
:1057000002207047002AF2D092F8200092F8202060
:10571000824214BF03200020704700002DE9F043AF
:105720001768D0F808C000293BD000254FF6FC7E52
:105730002B462C46DFF8948001EA0E014FEA8709D8
:1057400064453FD08B420CD00668A4BB06EA0E032A
:105750000134F5E70168ECB901EA06030134644558
:10576000F8D194600168194C21400D4355600168DF
:1057700021400B43D36053F8273043B1006823F036
:1057800003031B0420401B0C034313610023184632
:10579000BDE8F08308EB030501EA0E0169581D46D8
:1057A000DAE70D460B460C46DFF820E04FEA8708A3
:1057B0004FF6FC76D3E709EB030506EA0806AE5977
:1057C0001D46C3E78B42CCD00123E0E70000FFFF7A
:1057D00038B50446FEF752F80546002C00F0EF807D
:1057E000002384F84C300223226884F85430536933
:1057F00043F00603536123685A69D20700F1D4804D
:10580000D4E90E1211436F4A6F48934200F0898029
:1058100002F18052934200F0848002F170428032A3
:1058200093427ED002F1805293427AD002F17042CC
:105830008032934275D002F18052934271D002F1CE
:105840007042803293426CD002F18052934268D011
:1058500002F170428032934263D002F1805293424F
:105860005FD002F17042803293425AD002F18052EE
:10587000934256D0834254D08032934251D002F1A9
:105880007042803293424CD002F18052934248D011
:1058900002F1704202F54862934242D002F1805216
:1058A00093423ED002F170428032934239D002F1ED
:1058B0008052934235D002F170428032934230D010
:1058C00002F1805293422CD002F170428032934216
:1058D00027D002F18052934223D002F170428032ED
:1058E00093421ED002F1805293421AD002F17042CC
:1058F0008032934215D002F18052934211D002F1CE
:105900007042803293420CD002F18052934208D010
:1059100002F170428032934203D002F180529342EE
:1059200001D1226C11435A6922F443020A435A619D
:105930000023226813642268616C516422689364B6
:105940002268D36422681365236883421ED01F4AED
:1059500093421BD002F170428032934216D002F182
:105960008052934212D002F1704202F57862934263
:105970000CD002F18052934208D002F17042803282
:10598000934203D002F18052934203D100225A6520
:1059900023689A6500202368D867A36CA0652365F7
:1059A000012384F8543038BDFDF768FF401B0528FB
:1059B0007FF621AF1023A365032384F85430012020
:1059C000F1E700BF50000240500302405003025074
:1059D00070B50446FDF752FF0646002C77D02568C7
:1059E0006B6943F006036B612268536913F001038E
:1059F00063D1536122681360226813642268536480
:105A0000226893642268D364226813652268D3678E
:105A10002368304A93421FD002F1805293421BD038
:105A200002F170428032934216D002F180529342CA
:105A300012D002F1704202F5786293420CD002F16A
:105A40008052934208D002F170428032934203D0D8
:105A500002F18052934203D100225A6523689A656D
:105A60000120236825F47F62C3F30B0322F00F02A9
:105A7000503B5168C3F3C41300FA03F321EA030354
:105A800053604FF4FE422368DA600023626FC4E97A
:105A90001833C4E91A3323671AB11073626F1361A4
:105AA0006367E26D002302B1E3650020A36523650F
:105AB00084F8543084F84C3070BDFDF7DFFE801B55
:105AC000052891D91023A365032384F854300120BD
:105AD000F2E700BF50030240002859D0416F00296F
